{
  "contractName": "Users",
  "abi": [
    {
      "inputs": [
        {
          "internalType": "address",
          "name": "_ownerAccount",
          "type": "address"
        }
      ],
      "stateMutability": "nonpayable",
      "type": "constructor"
    },
    {
      "anonymous": false,
      "inputs": [
        {
          "indexed": false,
          "internalType": "string",
          "name": "name",
          "type": "string"
        },
        {
          "indexed": false,
          "internalType": "string",
          "name": "email",
          "type": "string"
        },
        {
          "indexed": false,
          "internalType": "string",
          "name": "profilePic",
          "type": "string"
        },
        {
          "indexed": false,
          "internalType": "uint256",
          "name": "cost",
          "type": "uint256"
        },
        {
          "indexed": false,
          "internalType": "address",
          "name": "userAddress",
          "type": "address"
        }
      ],
      "name": "CreateUser",
      "type": "event"
    },
    {
      "anonymous": false,
      "inputs": [
        {
          "indexed": false,
          "internalType": "address",
          "name": "currentUser",
          "type": "address"
        },
        {
          "indexed": false,
          "internalType": "address",
          "name": "followedUser",
          "type": "address"
        }
      ],
      "name": "FollowUser",
      "type": "event"
    },
    {
      "inputs": [
        {
          "internalType": "address",
          "name": "",
          "type": "address"
        },
        {
          "internalType": "address",
          "name": "",
          "type": "address"
        }
      ],
      "name": "followers",
      "outputs": [
        {
          "internalType": "bool",
          "name": "",
          "type": "bool"
        }
      ],
      "stateMutability": "view",
      "type": "function",
      "constant": true
    },
    {
      "inputs": [
        {
          "internalType": "address",
          "name": "",
          "type": "address"
        },
        {
          "internalType": "address",
          "name": "",
          "type": "address"
        }
      ],
      "name": "followings",
      "outputs": [
        {
          "internalType": "bool",
          "name": "",
          "type": "bool"
        }
      ],
      "stateMutability": "view",
      "type": "function",
      "constant": true
    },
    {
      "inputs": [],
      "name": "ownerAccount",
      "outputs": [
        {
          "internalType": "address",
          "name": "",
          "type": "address"
        }
      ],
      "stateMutability": "view",
      "type": "function",
      "constant": true
    },
    {
      "inputs": [
        {
          "internalType": "address",
          "name": "",
          "type": "address"
        }
      ],
      "name": "users",
      "outputs": [
        {
          "internalType": "string",
          "name": "name",
          "type": "string"
        },
        {
          "internalType": "string",
          "name": "email",
          "type": "string"
        },
        {
          "internalType": "string",
          "name": "profilePic",
          "type": "string"
        },
        {
          "internalType": "uint256",
          "name": "cost",
          "type": "uint256"
        },
        {
          "internalType": "address",
          "name": "userAddress",
          "type": "address"
        },
        {
          "internalType": "bool",
          "name": "valid",
          "type": "bool"
        }
      ],
      "stateMutability": "view",
      "type": "function",
      "constant": true
    },
    {
      "inputs": [
        {
          "internalType": "string",
          "name": "_name",
          "type": "string"
        },
        {
          "internalType": "string",
          "name": "_email",
          "type": "string"
        },
        {
          "internalType": "string",
          "name": "_profilePic",
          "type": "string"
        },
        {
          "internalType": "uint256",
          "name": "_cost",
          "type": "uint256"
        }
      ],
      "name": "createUser",
      "outputs": [],
      "stateMutability": "payable",
      "type": "function",
      "payable": true
    },
    {
      "inputs": [
        {
          "internalType": "address",
          "name": "_addressToFollow",
          "type": "address"
        }
      ],
      "name": "followUser",
      "outputs": [],
      "stateMutability": "payable",
      "type": "function",
      "payable": true
    },
    {
      "inputs": [
        {
          "internalType": "address",
          "name": "_addressToUnfollow",
          "type": "address"
        }
      ],
      "name": "unfollowUser",
      "outputs": [],
      "stateMutability": "nonpayable",
      "type": "function"
    }
  ],
  "bytecode": "0x60806040523480156200001157600080fd5b506040516200180738038062001807833981810160405281019062000037919062000095565b806000806101000a81548173ffffffffffffffffffffffffffffffffffffffff021916908373ffffffffffffffffffffffffffffffffffffffff160217905550506200010f565b6000815190506200008f81620000f5565b92915050565b600060208284031215620000a857600080fd5b6000620000b8848285016200007e565b91505092915050565b6000620000ce82620000d5565b9050919050565b600073ffffffffffffffffffffffffffffffffffffffff82169050919050565b6200010081620000c1565b81146200010c57600080fd5b50565b6116e8806200011f6000396000f3fe6080604052600436106100705760003560e01c8063ad88881b1161004e578063ad88881b14610110578063d26a72281461014d578063ea47cb2414610169578063f107cfcb1461019457610070565b80635dbcdff914610075578063a70806f7146100b2578063a87430ba146100ce575b600080fd5b34801561008157600080fd5b5061009c60048036038101906100979190611012565b6101bd565b6040516100a99190611323565b60405180910390f35b6100cc60048036038101906100c79190610fe9565b6101ec565b005b3480156100da57600080fd5b506100f560048036038101906100f09190610fe9565b61076c565b604051610107969594939291906113a6565b60405180910390f35b34801561011c57600080fd5b5061013760048036038101906101329190611012565b61096d565b6040516101449190611323565b60405180910390f35b6101676004803603810190610162919061104e565b61099c565b005b34801561017557600080fd5b5061017e610c64565b60405161018b91906112df565b60405180910390f35b3480156101a057600080fd5b506101bb60048036038101906101b69190610fe9565b610c88565b005b60026020528160005260406000206020528060005260406000206000915091509054906101000a900460ff1681565b600073ffffffffffffffffffffffffffffffffffffffff168173ffffffffffffffffffffffffffffffffffffffff16141561025c576040517f08c379a00000000000000000000000000000000000000000000000000000000081526004016102539061145c565b60405180910390fd5b600160008273ffffffffffffffffffffffffffffffffffffffff1673ffffffffffffffffffffffffffffffffffffffff16815260200190815260200160002060040160149054906101000a900460ff166102eb576040517f08c379a00000000000000000000000000000000000000000000000000000000081526004016102e29061149c565b60405180910390fd5b6000600160008373ffffffffffffffffffffffffffffffffffffffff1673ffffffffffffffffffffffffffffffffffffffff1681526020019081526020016000206040518060c0016040529081600082018054610347906115e3565b80601f0160208091040260200160405190810160405280929190818152602001828054610373906115e3565b80156103c05780601f10610395576101008083540402835291602001916103c0565b820191906000526020600020905b8154815290600101906020018083116103a357829003601f168201915b505050505081526020016001820180546103d9906115e3565b80601f0160208091040260200160405190810160405280929190818152602001828054610405906115e3565b80156104525780601f1061042757610100808354040283529160200191610452565b820191906000526020600020905b81548152906001019060200180831161043557829003601f168201915b5050505050815260200160028201805461046b906115e3565b80601f0160208091040260200160405190810160405280929190818152602001828054610497906115e3565b80156104e45780601f106104b9576101008083540402835291602001916104e4565b820191906000526020600020905b8154815290600101906020018083116104c757829003601f168201915b50505050508152602001600382015481526020016004820160009054906101000a900473ffffffffffffffffffffffffffffffffffffffff1673ffffffffffffffffffffffffffffffffffffffff1673ffffffffffffffffffffffffffffffffffffffff1681526020016004820160149054906101000a900460ff161515151581525050905060008160600151111561060557348160600151146105bd576040517f08c379a00000000000000000000000000000000000000000000000000000000081526004016105b49061147c565b60405180910390fd5b8173ffffffffffffffffffffffffffffffffffffffff166108fc349081150290604051600060405180830381858888f19350505050158015610603573d6000803e3d6000fd5b505b6001600260003373ffffffffffffffffffffffffffffffffffffffff1673ffffffffffffffffffffffffffffffffffffffff16815260200190815260200160002060008473ffffffffffffffffffffffffffffffffffffffff1673ffffffffffffffffffffffffffffffffffffffff16815260200190815260200160002060006101000a81548160ff0219169083151502179055506001600360008473ffffffffffffffffffffffffffffffffffffffff1673ffffffffffffffffffffffffffffffffffffffff16815260200190815260200160002060003373ffffffffffffffffffffffffffffffffffffffff1673ffffffffffffffffffffffffffffffffffffffff16815260200190815260200160002060006101000a81548160ff0219169083151502179055507f18f48e0ecf04191f0c297b700bc1bccdbd3fe8e2454077ff31f387110dc1938833836040516107609291906112fa565b60405180910390a15050565b600160205280600052604060002060009150905080600001805461078f906115e3565b80601f01602080910402602001604051908101604052809291908181526020018280546107bb906115e3565b80156108085780601f106107dd57610100808354040283529160200191610808565b820191906000526020600020905b8154815290600101906020018083116107eb57829003601f168201915b50505050509080600101805461081d906115e3565b80601f0160208091040260200160405190810160405280929190818152602001828054610849906115e3565b80156108965780601f1061086b57610100808354040283529160200191610896565b820191906000526020600020905b81548152906001019060200180831161087957829003601f168201915b5050505050908060020180546108ab906115e3565b80601f01602080910402602001604051908101604052809291908181526020018280546108d7906115e3565b80156109245780601f106108f957610100808354040283529160200191610924565b820191906000526020600020905b81548152906001019060200180831161090757829003601f168201915b5050505050908060030154908060040160009054906101000a900473ffffffffffffffffffffffffffffffffffffffff16908060040160149054906101000a900460ff16905086565b60036020528160005260406000206020528060005260406000206000915091509054906101000a900460ff1681565b60008451116109e0576040517f08c379a00000000000000000000000000000000000000000000000000000000081526004016109d79061141c565b60405180910390fd5b6000835111610a24576040517f08c379a0000000000000000000000000000000000000000000000000000000008152600401610a1b9061143c565b60405180910390fd5b6000825111610a68576040517f08c379a0000000000000000000000000000000000000000000000000000000008152600401610a5f906114bc565b60405180910390fd5b6040518060c001604052808581526020018481526020018381526020018281526020013373ffffffffffffffffffffffffffffffffffffffff16815260200160011515815250600160003373ffffffffffffffffffffffffffffffffffffffff1673ffffffffffffffffffffffffffffffffffffffff1681526020019081526020016000206000820151816000019080519060200190610b09929190610eb4565b506020820151816001019080519060200190610b26929190610eb4565b506040820151816002019080519060200190610b43929190610eb4565b506060820151816003015560808201518160040160006101000a81548173ffffffffffffffffffffffffffffffffffffffff021916908373ffffffffffffffffffffffffffffffffffffffff16021790555060a08201518160040160146101000a81548160ff02191690831515021790555090505060008054906101000a900473ffffffffffffffffffffffffffffffffffffffff1673ffffffffffffffffffffffffffffffffffffffff166108fc349081150290604051600060405180830381858888f19350505050158015610c1e573d6000803e3d6000fd5b507f283f9f5cae419d3df3e1aad205cf2df60beebeba0f90173514aa194db8b072158484848433604051610c5695949392919061133e565b60405180910390a150505050565b60008054906101000a900473ffffffffffffffffffffffffffffffffffffffff1681565b600073ffffffffffffffffffffffffffffffffffffffff168173ffffffffffffffffffffffffffffffffffffffff161415610cf8576040517f08c379a0000000000000000000000000000000000000000000000000000000008152600401610cef9061145c565b60405180910390fd5b600160008273ffffffffffffffffffffffffffffffffffffffff1673ffffffffffffffffffffffffffffffffffffffff16815260200190815260200160002060040160149054906101000a900460ff16610d87576040517f08c379a0000000000000000000000000000000000000000000000000000000008152600401610d7e9061149c565b60405180910390fd5b6000600260003373ffffffffffffffffffffffffffffffffffffffff1673ffffffffffffffffffffffffffffffffffffffff16815260200190815260200160002060008373ffffffffffffffffffffffffffffffffffffffff1673ffffffffffffffffffffffffffffffffffffffff16815260200190815260200160002060006101000a81548160ff0219169083151502179055506000600360008373ffffffffffffffffffffffffffffffffffffffff1673ffffffffffffffffffffffffffffffffffffffff16815260200190815260200160002060003373ffffffffffffffffffffffffffffffffffffffff1673ffffffffffffffffffffffffffffffffffffffff16815260200190815260200160002060006101000a81548160ff02191690831515021790555050565b828054610ec0906115e3565b90600052602060002090601f016020900481019282610ee25760008555610f29565b82601f10610efb57805160ff1916838001178555610f29565b82800160010185558215610f29579182015b82811115610f28578251825591602001919060010190610f0d565b5b509050610f369190610f3a565b5090565b5b80821115610f53576000816000905550600101610f3b565b5090565b6000610f6a610f658461150d565b6114dc565b905082815260208101848484011115610f8257600080fd5b610f8d8482856115a1565b509392505050565b600081359050610fa481611684565b92915050565b600082601f830112610fbb57600080fd5b8135610fcb848260208601610f57565b91505092915050565b600081359050610fe38161169b565b92915050565b600060208284031215610ffb57600080fd5b600061100984828501610f95565b91505092915050565b6000806040838503121561102557600080fd5b600061103385828601610f95565b925050602061104485828601610f95565b9150509250929050565b6000806000806080858703121561106457600080fd5b600085013567ffffffffffffffff81111561107e57600080fd5b61108a87828801610faa565b945050602085013567ffffffffffffffff8111156110a757600080fd5b6110b387828801610faa565b935050604085013567ffffffffffffffff8111156110d057600080fd5b6110dc87828801610faa565b92505060606110ed87828801610fd4565b91505092959194509250565b61110281611559565b82525050565b6111118161156b565b82525050565b60006111228261153d565b61112c8185611548565b935061113c8185602086016115b0565b61114581611673565b840191505092915050565b600061115d601883611548565b91507f456c206e6f6d627265206573206f626c696761746f72696f00000000000000006000830152602082019050919050565b600061119d601783611548565b91507f456c20656d61696c206573206f626c696761746f72696f0000000000000000006000830152602082019050919050565b60006111dd600c83611548565b91507f496e76616c6964207573657200000000000000000000000000000000000000006000830152602082019050919050565b600061121d601083611548565b91507f4d6f6e746f20696e636f72726563746f000000000000000000000000000000006000830152602082019050919050565b600061125d601183611548565b91507f5573756172696f206e6f206578697374650000000000000000000000000000006000830152602082019050919050565b600061129d602083611548565b91507f4c6120666f746f2064652070657266696c206573206f626c696761746f7269616000830152602082019050919050565b6112d981611597565b82525050565b60006020820190506112f460008301846110f9565b92915050565b600060408201905061130f60008301856110f9565b61131c60208301846110f9565b9392505050565b60006020820190506113386000830184611108565b92915050565b600060a08201905081810360008301526113588188611117565b9050818103602083015261136c8187611117565b905081810360408301526113808186611117565b905061138f60608301856112d0565b61139c60808301846110f9565b9695505050505050565b600060c08201905081810360008301526113c08189611117565b905081810360208301526113d48188611117565b905081810360408301526113e88187611117565b90506113f760608301866112d0565b61140460808301856110f9565b61141160a0830184611108565b979650505050505050565b6000602082019050818103600083015261143581611150565b9050919050565b6000602082019050818103600083015261145581611190565b9050919050565b60006020820190508181036000830152611475816111d0565b9050919050565b6000602082019050818103600083015261149581611210565b9050919050565b600060208201905081810360008301526114b581611250565b9050919050565b600060208201905081810360008301526114d581611290565b9050919050565b6000604051905081810181811067ffffffffffffffff8211171561150357611502611644565b5b8060405250919050565b600067ffffffffffffffff82111561152857611527611644565b5b601f19601f8301169050602081019050919050565b600081519050919050565b600082825260208201905092915050565b600061156482611577565b9050919050565b60008115159050919050565b600073ffffffffffffffffffffffffffffffffffffffff82169050919050565b6000819050919050565b82818337600083830152505050565b60005b838110156115ce5780820151818401526020810190506115b3565b838111156115dd576000848401525b50505050565b600060028204905060018216806115fb57607f821691505b6020821081141561160f5761160e611615565b5b50919050565b7f4e487b7100000000000000000000000000000000000000000000000000000000600052602260045260246000fd5b7f4e487b7100000000000000000000000000000000000000000000000000000000600052604160045260246000fd5b6000601f19601f8301169050919050565b61168d81611559565b811461169857600080fd5b50565b6116a481611597565b81146116af57600080fd5b5056fea2646970667358221220fce72e2d8c88fea5479b383c4a05f93f4024add098931b25e7a9566acbc06e4b64736f6c63430008000033",
  "immutableReferences": {},
  "source": "// SPDX-License-Identifier: MIT\npragma solidity ^0.8.0;\n\ncontract Users {  \n  address public ownerAccount;\n  mapping(address => _User) public users;\n  mapping(address => mapping(address => bool)) public followings;\n  mapping(address => mapping(address => bool)) public followers;\n  \n  /*---OBJECTS---*/  \n  struct _User {\n    string name;\n    string email;\n    string profilePic;\n    uint cost;\n    address userAddress;\n    bool valid;    \n  }\n\n  /*---EVENTS---*/\n  event CreateUser(\n    string name,\n    string email,\n    string profilePic,\n    uint cost,\n    address userAddress\n  );\n\n  event FollowUser(\n    address currentUser,\n    address followedUser\n  );\n  \n  constructor(address _ownerAccount) {\n    ownerAccount = _ownerAccount;\n  }\n\n  function createUser(string memory _name, string memory _email, string memory _profilePic, uint _cost) public payable {\n    //Validate mandatory fields\n    require(bytes(_name).length > 0, 'El nombre es obligatorio');\n    require(bytes(_email).length > 0, 'El email es obligatorio');\n    require(bytes(_profilePic).length > 0, 'La foto de perfil es obligatoria');\n\n    //Add user and pay the owner\n    users[msg.sender] = _User(_name, _email, _profilePic, _cost, msg.sender, true);\n    payable(ownerAccount).transfer(msg.value);\n\n    emit CreateUser(_name, _email, _profilePic, _cost, msg.sender);\n  }\n\n  function followUser(address _addressToFollow) public payable {\n    require(_addressToFollow != address(0), 'Invalid user');\n    require(users[_addressToFollow].valid, 'Usuario no existe');\n\n    _User memory userToFollow = users[_addressToFollow];\n\n    if(userToFollow.cost > 0) {\n      require(userToFollow.cost == msg.value, 'Monto incorrecto');\n      payable(_addressToFollow).transfer(msg.value);\n    }\n\n    followings[msg.sender][_addressToFollow] = true;\n    followers[_addressToFollow][msg.sender] = true;\n\n    emit FollowUser(msg.sender, _addressToFollow);    \n  }\n\n  function unfollowUser(address _addressToUnfollow) public {\n    require(_addressToUnfollow != address(0), 'Invalid user');\n    require(users[_addressToUnfollow].valid, 'Usuario no existe');\n\n    followings[msg.sender][_addressToUnfollow] = false;\n    followers[_addressToUnfollow][msg.sender] = false;\n  }\n}",
  "sourcePath": "/Users/mnavapena/Documents/coding/blockchain/decart/src/contracts/Users.sol",
  "compiler": {
    "name": "solc",
    "version": "0.8.0+commit.c7dfd78e.Emscripten.clang"
  },
  "schemaVersion": "3.2.3",
  "updatedAt": "2022-02-15T00:01:58.393Z",
  "networkType": "ethereum",
  "devdoc": {
    "kind": "dev",
    "methods": {},
    "version": 1
  },
  "userdoc": {
    "kind": "user",
    "methods": {},
    "version": 1
  }
}