{
  "contractName": "Users",
  "abi": [
    {
      "inputs": [
        {
          "internalType": "address",
          "name": "_ownerAccount",
          "type": "address"
        }
      ],
      "stateMutability": "nonpayable",
      "type": "constructor"
    },
    {
      "anonymous": false,
      "inputs": [
        {
          "indexed": false,
          "internalType": "string",
          "name": "name",
          "type": "string"
        },
        {
          "indexed": false,
          "internalType": "string",
          "name": "email",
          "type": "string"
        },
        {
          "indexed": false,
          "internalType": "string",
          "name": "profilePic",
          "type": "string"
        },
        {
          "indexed": false,
          "internalType": "uint256",
          "name": "cost",
          "type": "uint256"
        },
        {
          "indexed": false,
          "internalType": "address",
          "name": "userAddress",
          "type": "address"
        }
      ],
      "name": "CreateUser",
      "type": "event"
    },
    {
      "anonymous": false,
      "inputs": [
        {
          "indexed": false,
          "internalType": "address",
          "name": "currentUser",
          "type": "address"
        },
        {
          "indexed": false,
          "internalType": "address",
          "name": "followedUser",
          "type": "address"
        }
      ],
      "name": "FollowUser",
      "type": "event"
    },
    {
      "inputs": [
        {
          "internalType": "address",
          "name": "",
          "type": "address"
        },
        {
          "internalType": "address",
          "name": "",
          "type": "address"
        }
      ],
      "name": "followers",
      "outputs": [
        {
          "internalType": "bool",
          "name": "",
          "type": "bool"
        }
      ],
      "stateMutability": "view",
      "type": "function",
      "constant": true
    },
    {
      "inputs": [
        {
          "internalType": "address",
          "name": "",
          "type": "address"
        },
        {
          "internalType": "address",
          "name": "",
          "type": "address"
        }
      ],
      "name": "followings",
      "outputs": [
        {
          "internalType": "bool",
          "name": "",
          "type": "bool"
        }
      ],
      "stateMutability": "view",
      "type": "function",
      "constant": true
    },
    {
      "inputs": [],
      "name": "ownerAccount",
      "outputs": [
        {
          "internalType": "address",
          "name": "",
          "type": "address"
        }
      ],
      "stateMutability": "view",
      "type": "function",
      "constant": true
    },
    {
      "inputs": [
        {
          "internalType": "address",
          "name": "",
          "type": "address"
        }
      ],
      "name": "users",
      "outputs": [
        {
          "internalType": "string",
          "name": "name",
          "type": "string"
        },
        {
          "internalType": "string",
          "name": "email",
          "type": "string"
        },
        {
          "internalType": "string",
          "name": "profilePic",
          "type": "string"
        },
        {
          "internalType": "uint256",
          "name": "cost",
          "type": "uint256"
        },
        {
          "internalType": "address",
          "name": "userAddress",
          "type": "address"
        },
        {
          "internalType": "uint256",
          "name": "followings",
          "type": "uint256"
        },
        {
          "internalType": "uint256",
          "name": "followers",
          "type": "uint256"
        },
        {
          "internalType": "bool",
          "name": "valid",
          "type": "bool"
        }
      ],
      "stateMutability": "view",
      "type": "function",
      "constant": true
    },
    {
      "inputs": [
        {
          "internalType": "string",
          "name": "_name",
          "type": "string"
        },
        {
          "internalType": "string",
          "name": "_email",
          "type": "string"
        },
        {
          "internalType": "string",
          "name": "_profilePic",
          "type": "string"
        },
        {
          "internalType": "uint256",
          "name": "_cost",
          "type": "uint256"
        }
      ],
      "name": "createUser",
      "outputs": [],
      "stateMutability": "payable",
      "type": "function",
      "payable": true
    },
    {
      "inputs": [
        {
          "internalType": "address",
          "name": "_addressToFollow",
          "type": "address"
        }
      ],
      "name": "followUser",
      "outputs": [],
      "stateMutability": "payable",
      "type": "function",
      "payable": true
    },
    {
      "inputs": [
        {
          "internalType": "address",
          "name": "_addressToUnfollow",
          "type": "address"
        }
      ],
      "name": "unfollowUser",
      "outputs": [],
      "stateMutability": "nonpayable",
      "type": "function"
    }
  ],
  "bytecode": "0x60806040523480156200001157600080fd5b50604051620026e4380380620026e4833981810160405281019062000037919062000095565b806000806101000a81548173ffffffffffffffffffffffffffffffffffffffff021916908373ffffffffffffffffffffffffffffffffffffffff160217905550506200010f565b6000815190506200008f81620000f5565b92915050565b600060208284031215620000a857600080fd5b6000620000b8848285016200007e565b91505092915050565b6000620000ce82620000d5565b9050919050565b600073ffffffffffffffffffffffffffffffffffffffff82169050919050565b6200010081620000c1565b81146200010c57600080fd5b50565b6125c5806200011f6000396000f3fe6080604052600436106100705760003560e01c8063ad88881b1161004e578063ad88881b14610112578063d26a72281461014f578063ea47cb241461016b578063f107cfcb1461019657610070565b80635dbcdff914610075578063a70806f7146100b2578063a87430ba146100ce575b600080fd5b34801561008157600080fd5b5061009c60048036038101906100979190611e19565b6101bf565b6040516100a9919061212a565b60405180910390f35b6100cc60048036038101906100c79190611df0565b6101ee565b005b3480156100da57600080fd5b506100f560048036038101906100f09190611df0565b610d19565b6040516101099897969594939291906121ad565b60405180910390f35b34801561011e57600080fd5b5061013960048036038101906101349190611e19565b610f26565b604051610146919061212a565b60405180910390f35b61016960048036038101906101649190611e55565b610f55565b005b34801561017757600080fd5b50610180611240565b60405161018d91906120e6565b60405180910390f35b3480156101a257600080fd5b506101bd60048036038101906101b89190611df0565b611264565b005b60026020528160005260406000206020528060005260406000206000915091509054906101000a900460ff1681565b600073ffffffffffffffffffffffffffffffffffffffff168173ffffffffffffffffffffffffffffffffffffffff16141561025e576040517f08c379a000000000000000000000000000000000000000000000000000000000815260040161025590612280565b60405180910390fd5b600160008273ffffffffffffffffffffffffffffffffffffffff1673ffffffffffffffffffffffffffffffffffffffff16815260200190815260200160002060070160009054906101000a900460ff166102ed576040517f08c379a00000000000000000000000000000000000000000000000000000000081526004016102e4906122c0565b60405180910390fd5b600160003373ffffffffffffffffffffffffffffffffffffffff1673ffffffffffffffffffffffffffffffffffffffff16815260200190815260200160002060070160009054906101000a900460ff1661037c576040517f08c379a0000000000000000000000000000000000000000000000000000000008152600401610373906122c0565b60405180910390fd5b6000600160008373ffffffffffffffffffffffffffffffffffffffff1673ffffffffffffffffffffffffffffffffffffffff168152602001908152602001600020604051806101000160405290816000820180546103d990612491565b80601f016020809104026020016040519081016040528092919081815260200182805461040590612491565b80156104525780601f1061042757610100808354040283529160200191610452565b820191906000526020600020905b81548152906001019060200180831161043557829003601f168201915b5050505050815260200160018201805461046b90612491565b80601f016020809104026020016040519081016040528092919081815260200182805461049790612491565b80156104e45780601f106104b9576101008083540402835291602001916104e4565b820191906000526020600020905b8154815290600101906020018083116104c757829003601f168201915b505050505081526020016002820180546104fd90612491565b80601f016020809104026020016040519081016040528092919081815260200182805461052990612491565b80156105765780601f1061054b57610100808354040283529160200191610576565b820191906000526020600020905b81548152906001019060200180831161055957829003601f168201915b50505050508152602001600382015481526020016004820160009054906101000a900473ffffffffffffffffffffffffffffffffffffffff1673ffffffffffffffffffffffffffffffffffffffff1673ffffffffffffffffffffffffffffffffffffffff16815260200160058201548152602001600682015481526020016007820160009054906101000a900460ff16151515158152505090506000600160003373ffffffffffffffffffffffffffffffffffffffff1673ffffffffffffffffffffffffffffffffffffffff1681526020019081526020016000206040518061010001604052908160008201805461066d90612491565b80601f016020809104026020016040519081016040528092919081815260200182805461069990612491565b80156106e65780601f106106bb576101008083540402835291602001916106e6565b820191906000526020600020905b8154815290600101906020018083116106c957829003601f168201915b505050505081526020016001820180546106ff90612491565b80601f016020809104026020016040519081016040528092919081815260200182805461072b90612491565b80156107785780601f1061074d57610100808354040283529160200191610778565b820191906000526020600020905b81548152906001019060200180831161075b57829003601f168201915b5050505050815260200160028201805461079190612491565b80601f01602080910402602001604051908101604052809291908181526020018280546107bd90612491565b801561080a5780601f106107df5761010080835404028352916020019161080a565b820191906000526020600020905b8154815290600101906020018083116107ed57829003601f168201915b50505050508152602001600382015481526020016004820160009054906101000a900473ffffffffffffffffffffffffffffffffffffffff1673ffffffffffffffffffffffffffffffffffffffff1673ffffffffffffffffffffffffffffffffffffffff16815260200160058201548152602001600682015481526020016007820160009054906101000a900460ff161515151581525050905060008260600151111561093f57348260600151146108f7576040517f08c379a00000000000000000000000000000000000000000000000000000000081526004016108ee906122a0565b60405180910390fd5b8273ffffffffffffffffffffffffffffffffffffffff166108fc349081150290604051600060405180830381858888f1935050505015801561093d573d6000803e3d6000fd5b505b60018260c00151610950919061237d565b8260c001818152505060018160a0015161096a919061237d565b8160a001818152505081600160008573ffffffffffffffffffffffffffffffffffffffff1673ffffffffffffffffffffffffffffffffffffffff16815260200190815260200160002060008201518160000190805190602001906109cf929190611cbb565b5060208201518160010190805190602001906109ec929190611cbb565b506040820151816002019080519060200190610a09929190611cbb565b506060820151816003015560808201518160040160006101000a81548173ffffffffffffffffffffffffffffffffffffffff021916908373ffffffffffffffffffffffffffffffffffffffff16021790555060a0820151816005015560c0820151816006015560e08201518160070160006101000a81548160ff02191690831515021790555090505080600160003373ffffffffffffffffffffffffffffffffffffffff1673ffffffffffffffffffffffffffffffffffffffff1681526020019081526020016000206000820151816000019080519060200190610aee929190611cbb565b506020820151816001019080519060200190610b0b929190611cbb565b506040820151816002019080519060200190610b28929190611cbb565b506060820151816003015560808201518160040160006101000a81548173ffffffffffffffffffffffffffffffffffffffff021916908373ffffffffffffffffffffffffffffffffffffffff16021790555060a0820151816005015560c0820151816006015560e08201518160070160006101000a81548160ff0219169083151502179055509050506001600260003373ffffffffffffffffffffffffffffffffffffffff1673ffffffffffffffffffffffffffffffffffffffff16815260200190815260200160002060008573ffffffffffffffffffffffffffffffffffffffff1673ffffffffffffffffffffffffffffffffffffffff16815260200190815260200160002060006101000a81548160ff0219169083151502179055506001600360008573ffffffffffffffffffffffffffffffffffffffff1673ffffffffffffffffffffffffffffffffffffffff16815260200190815260200160002060003373ffffffffffffffffffffffffffffffffffffffff1673ffffffffffffffffffffffffffffffffffffffff16815260200190815260200160002060006101000a81548160ff0219169083151502179055507f18f48e0ecf04191f0c297b700bc1bccdbd3fe8e2454077ff31f387110dc193883384604051610d0c929190612101565b60405180910390a1505050565b6001602052806000526040600020600091509050806000018054610d3c90612491565b80601f0160208091040260200160405190810160405280929190818152602001828054610d6890612491565b8015610db55780601f10610d8a57610100808354040283529160200191610db5565b820191906000526020600020905b815481529060010190602001808311610d9857829003601f168201915b505050505090806001018054610dca90612491565b80601f0160208091040260200160405190810160405280929190818152602001828054610df690612491565b8015610e435780601f10610e1857610100808354040283529160200191610e43565b820191906000526020600020905b815481529060010190602001808311610e2657829003601f168201915b505050505090806002018054610e5890612491565b80601f0160208091040260200160405190810160405280929190818152602001828054610e8490612491565b8015610ed15780601f10610ea657610100808354040283529160200191610ed1565b820191906000526020600020905b815481529060010190602001808311610eb457829003601f168201915b5050505050908060030154908060040160009054906101000a900473ffffffffffffffffffffffffffffffffffffffff16908060050154908060060154908060070160009054906101000a900460ff16905088565b60036020528160005260406000206020528060005260406000206000915091509054906101000a900460ff1681565b6000845111610f99576040517f08c379a0000000000000000000000000000000000000000000000000000000008152600401610f9090612240565b60405180910390fd5b6000835111610fdd576040517f08c379a0000000000000000000000000000000000000000000000000000000008152600401610fd490612260565b60405180910390fd5b6000825111611021576040517f08c379a0000000000000000000000000000000000000000000000000000000008152600401611018906122e0565b60405180910390fd5b6040518061010001604052808581526020018481526020018381526020018281526020013373ffffffffffffffffffffffffffffffffffffffff168152602001600081526020016000815260200160011515815250600160003373ffffffffffffffffffffffffffffffffffffffff1673ffffffffffffffffffffffffffffffffffffffff16815260200190815260200160002060008201518160000190805190602001906110d1929190611cbb565b5060208201518160010190805190602001906110ee929190611cbb565b50604082015181600201908051906020019061110b929190611cbb565b506060820151816003015560808201518160040160006101000a81548173ffffffffffffffffffffffffffffffffffffffff021916908373ffffffffffffffffffffffffffffffffffffffff16021790555060a0820151816005015560c0820151816006015560e08201518160070160006101000a81548160ff02191690831515021790555090505060008054906101000a900473ffffffffffffffffffffffffffffffffffffffff1673ffffffffffffffffffffffffffffffffffffffff166108fc349081150290604051600060405180830381858888f193505050501580156111fa573d6000803e3d6000fd5b507f283f9f5cae419d3df3e1aad205cf2df60beebeba0f90173514aa194db8b072158484848433604051611232959493929190612145565b60405180910390a150505050565b60008054906101000a900473ffffffffffffffffffffffffffffffffffffffff1681565b600073ffffffffffffffffffffffffffffffffffffffff168173ffffffffffffffffffffffffffffffffffffffff1614156112d4576040517f08c379a00000000000000000000000000000000000000000000000000000000081526004016112cb90612280565b60405180910390fd5b600160008273ffffffffffffffffffffffffffffffffffffffff1673ffffffffffffffffffffffffffffffffffffffff16815260200190815260200160002060070160009054906101000a900460ff16611363576040517f08c379a000000000000000000000000000000000000000000000000000000000815260040161135a906122c0565b60405180910390fd5b600160003373ffffffffffffffffffffffffffffffffffffffff1673ffffffffffffffffffffffffffffffffffffffff16815260200190815260200160002060070160009054906101000a900460ff166113f2576040517f08c379a00000000000000000000000000000000000000000000000000000000081526004016113e9906122c0565b60405180910390fd5b6000600160008373ffffffffffffffffffffffffffffffffffffffff1673ffffffffffffffffffffffffffffffffffffffff1681526020019081526020016000206040518061010001604052908160008201805461144f90612491565b80601f016020809104026020016040519081016040528092919081815260200182805461147b90612491565b80156114c85780601f1061149d576101008083540402835291602001916114c8565b820191906000526020600020905b8154815290600101906020018083116114ab57829003601f168201915b505050505081526020016001820180546114e190612491565b80601f016020809104026020016040519081016040528092919081815260200182805461150d90612491565b801561155a5780601f1061152f5761010080835404028352916020019161155a565b820191906000526020600020905b81548152906001019060200180831161153d57829003601f168201915b5050505050815260200160028201805461157390612491565b80601f016020809104026020016040519081016040528092919081815260200182805461159f90612491565b80156115ec5780601f106115c1576101008083540402835291602001916115ec565b820191906000526020600020905b8154815290600101906020018083116115cf57829003601f168201915b50505050508152602001600382015481526020016004820160009054906101000a900473ffffffffffffffffffffffffffffffffffffffff1673ffffffffffffffffffffffffffffffffffffffff1673ffffffffffffffffffffffffffffffffffffffff16815260200160058201548152602001600682015481526020016007820160009054906101000a900460ff16151515158152505090506000600160003373ffffffffffffffffffffffffffffffffffffffff1673ffffffffffffffffffffffffffffffffffffffff168152602001908152602001600020604051806101000160405290816000820180546116e390612491565b80601f016020809104026020016040519081016040528092919081815260200182805461170f90612491565b801561175c5780601f106117315761010080835404028352916020019161175c565b820191906000526020600020905b81548152906001019060200180831161173f57829003601f168201915b5050505050815260200160018201805461177590612491565b80601f01602080910402602001604051908101604052809291908181526020018280546117a190612491565b80156117ee5780601f106117c3576101008083540402835291602001916117ee565b820191906000526020600020905b8154815290600101906020018083116117d157829003601f168201915b5050505050815260200160028201805461180790612491565b80601f016020809104026020016040519081016040528092919081815260200182805461183390612491565b80156118805780601f1061185557610100808354040283529160200191611880565b820191906000526020600020905b81548152906001019060200180831161186357829003601f168201915b50505050508152602001600382015481526020016004820160009054906101000a900473ffffffffffffffffffffffffffffffffffffffff1673ffffffffffffffffffffffffffffffffffffffff1673ffffffffffffffffffffffffffffffffffffffff16815260200160058201548152602001600682015481526020016007820160009054906101000a900460ff161515151581525050905060018260c0015161192b91906123d3565b8260c001818152505060018160a0015161194591906123d3565b8160a001818152505081600160008573ffffffffffffffffffffffffffffffffffffffff1673ffffffffffffffffffffffffffffffffffffffff16815260200190815260200160002060008201518160000190805190602001906119aa929190611cbb565b5060208201518160010190805190602001906119c7929190611cbb565b5060408201518160020190805190602001906119e4929190611cbb565b506060820151816003015560808201518160040160006101000a81548173ffffffffffffffffffffffffffffffffffffffff021916908373ffffffffffffffffffffffffffffffffffffffff16021790555060a0820151816005015560c0820151816006015560e08201518160070160006101000a81548160ff02191690831515021790555090505080600160003373ffffffffffffffffffffffffffffffffffffffff1673ffffffffffffffffffffffffffffffffffffffff1681526020019081526020016000206000820151816000019080519060200190611ac9929190611cbb565b506020820151816001019080519060200190611ae6929190611cbb565b506040820151816002019080519060200190611b03929190611cbb565b506060820151816003015560808201518160040160006101000a81548173ffffffffffffffffffffffffffffffffffffffff021916908373ffffffffffffffffffffffffffffffffffffffff16021790555060a0820151816005015560c0820151816006015560e08201518160070160006101000a81548160ff0219169083151502179055509050506000600260003373ffffffffffffffffffffffffffffffffffffffff1673ffffffffffffffffffffffffffffffffffffffff16815260200190815260200160002060008573ffffffffffffffffffffffffffffffffffffffff1673ffffffffffffffffffffffffffffffffffffffff16815260200190815260200160002060006101000a81548160ff0219169083151502179055506000600360008573ffffffffffffffffffffffffffffffffffffffff1673ffffffffffffffffffffffffffffffffffffffff16815260200190815260200160002060003373ffffffffffffffffffffffffffffffffffffffff1673ffffffffffffffffffffffffffffffffffffffff16815260200190815260200160002060006101000a81548160ff021916908315150217905550505050565b828054611cc790612491565b90600052602060002090601f016020900481019282611ce95760008555611d30565b82601f10611d0257805160ff1916838001178555611d30565b82800160010185558215611d30579182015b82811115611d2f578251825591602001919060010190611d14565b5b509050611d3d9190611d41565b5090565b5b80821115611d5a576000816000905550600101611d42565b5090565b6000611d71611d6c84612331565b612300565b905082815260208101848484011115611d8957600080fd5b611d9484828561244f565b509392505050565b600081359050611dab81612561565b92915050565b600082601f830112611dc257600080fd5b8135611dd2848260208601611d5e565b91505092915050565b600081359050611dea81612578565b92915050565b600060208284031215611e0257600080fd5b6000611e1084828501611d9c565b91505092915050565b60008060408385031215611e2c57600080fd5b6000611e3a85828601611d9c565b9250506020611e4b85828601611d9c565b9150509250929050565b60008060008060808587031215611e6b57600080fd5b600085013567ffffffffffffffff811115611e8557600080fd5b611e9187828801611db1565b945050602085013567ffffffffffffffff811115611eae57600080fd5b611eba87828801611db1565b935050604085013567ffffffffffffffff811115611ed757600080fd5b611ee387828801611db1565b9250506060611ef487828801611ddb565b91505092959194509250565b611f0981612407565b82525050565b611f1881612419565b82525050565b6000611f2982612361565b611f33818561236c565b9350611f4381856020860161245e565b611f4c81612550565b840191505092915050565b6000611f6460188361236c565b91507f456c206e6f6d627265206573206f626c696761746f72696f00000000000000006000830152602082019050919050565b6000611fa460178361236c565b91507f456c20656d61696c206573206f626c696761746f72696f0000000000000000006000830152602082019050919050565b6000611fe4600c8361236c565b91507f496e76616c6964207573657200000000000000000000000000000000000000006000830152602082019050919050565b600061202460108361236c565b91507f4d6f6e746f20696e636f72726563746f000000000000000000000000000000006000830152602082019050919050565b600061206460118361236c565b91507f5573756172696f206e6f206578697374650000000000000000000000000000006000830152602082019050919050565b60006120a460208361236c565b91507f4c6120666f746f2064652070657266696c206573206f626c696761746f7269616000830152602082019050919050565b6120e081612445565b82525050565b60006020820190506120fb6000830184611f00565b92915050565b60006040820190506121166000830185611f00565b6121236020830184611f00565b9392505050565b600060208201905061213f6000830184611f0f565b92915050565b600060a082019050818103600083015261215f8188611f1e565b905081810360208301526121738187611f1e565b905081810360408301526121878186611f1e565b905061219660608301856120d7565b6121a36080830184611f00565b9695505050505050565b60006101008201905081810360008301526121c8818b611f1e565b905081810360208301526121dc818a611f1e565b905081810360408301526121f08189611f1e565b90506121ff60608301886120d7565b61220c6080830187611f00565b61221960a08301866120d7565b61222660c08301856120d7565b61223360e0830184611f0f565b9998505050505050505050565b6000602082019050818103600083015261225981611f57565b9050919050565b6000602082019050818103600083015261227981611f97565b9050919050565b6000602082019050818103600083015261229981611fd7565b9050919050565b600060208201905081810360008301526122b981612017565b9050919050565b600060208201905081810360008301526122d981612057565b9050919050565b600060208201905081810360008301526122f981612097565b9050919050565b6000604051905081810181811067ffffffffffffffff8211171561232757612326612521565b5b8060405250919050565b600067ffffffffffffffff82111561234c5761234b612521565b5b601f19601f8301169050602081019050919050565b600081519050919050565b600082825260208201905092915050565b600061238882612445565b915061239383612445565b9250827fffffffffffffffffffffffffffffffffffffffffffffffffffffffffffffffff038211156123c8576123c76124c3565b5b828201905092915050565b60006123de82612445565b91506123e983612445565b9250828210156123fc576123fb6124c3565b5b828203905092915050565b600061241282612425565b9050919050565b60008115159050919050565b600073ffffffffffffffffffffffffffffffffffffffff82169050919050565b6000819050919050565b82818337600083830152505050565b60005b8381101561247c578082015181840152602081019050612461565b8381111561248b576000848401525b50505050565b600060028204905060018216806124a957607f821691505b602082108114156124bd576124bc6124f2565b5b50919050565b7f4e487b7100000000000000000000000000000000000000000000000000000000600052601160045260246000fd5b7f4e487b7100000000000000000000000000000000000000000000000000000000600052602260045260246000fd5b7f4e487b7100000000000000000000000000000000000000000000000000000000600052604160045260246000fd5b6000601f19601f8301169050919050565b61256a81612407565b811461257557600080fd5b50565b61258181612445565b811461258c57600080fd5b5056fea2646970667358221220a0ad3a7a5ca23d3b8b281aa0712b6f26c30fd18336a4c673cd640887a71a0bac64736f6c63430008000033",
  "immutableReferences": {},
  "source": "// SPDX-License-Identifier: MIT\npragma solidity ^0.8.0;\n\ncontract Users {  \n  address public ownerAccount;\n  mapping(address => _User) public users;\n  mapping(address => mapping(address => bool)) public followings;\n  mapping(address => mapping(address => bool)) public followers;\n  \n  /*---OBJECTS---*/  \n  struct _User {\n    string name;\n    string email;\n    string profilePic;\n    uint cost;\n    address userAddress;\n    uint followings;\n    uint followers;\n    bool valid;\n  }\n\n  /*---EVENTS---*/\n  event CreateUser(\n    string name,\n    string email,\n    string profilePic,\n    uint cost,\n    address userAddress    \n  );\n\n  event FollowUser(\n    address currentUser,\n    address followedUser\n  );\n  \n  constructor(address _ownerAccount) {\n    ownerAccount = _ownerAccount;\n  }\n\n  function createUser(string memory _name, string memory _email, string memory _profilePic, uint _cost) public payable {\n    //Validate mandatory fields\n    require(bytes(_name).length > 0, 'El nombre es obligatorio');\n    require(bytes(_email).length > 0, 'El email es obligatorio');\n    require(bytes(_profilePic).length > 0, 'La foto de perfil es obligatoria');\n\n    //Add user and pay the owner\n    users[msg.sender] = _User(_name, _email, _profilePic, _cost, msg.sender, 0, 0, true);\n    payable(ownerAccount).transfer(msg.value);\n\n    emit CreateUser(_name, _email, _profilePic, _cost, msg.sender);\n  }\n\n  function followUser(address _addressToFollow) public payable {\n    require(_addressToFollow != address(0), 'Invalid user');\n    require(users[_addressToFollow].valid, 'Usuario no existe');\n    require(users[msg.sender].valid, 'Usuario no existe');\n\n    _User memory userToFollow = users[_addressToFollow];\n    _User memory currentUser = users[msg.sender];\n\n    if(userToFollow.cost > 0) {\n      require(userToFollow.cost == msg.value, 'Monto incorrecto');\n      payable(_addressToFollow).transfer(msg.value);\n    }    \n\n    userToFollow.followers = userToFollow.followers + 1;\n    currentUser.followings = currentUser.followings + 1;\n\n    users[_addressToFollow] = userToFollow;\n    users[msg.sender] = currentUser;\n\n    followings[msg.sender][_addressToFollow] = true;\n    followers[_addressToFollow][msg.sender] = true;\n\n    emit FollowUser(msg.sender, _addressToFollow);    \n  }\n\n  function unfollowUser(address _addressToUnfollow) public {\n    require(_addressToUnfollow != address(0), 'Invalid user');\n    require(users[_addressToUnfollow].valid, 'Usuario no existe');\n    require(users[msg.sender].valid, 'Usuario no existe');\n\n    _User memory userToUnFollow = users[_addressToUnfollow];\n    _User memory currentUser = users[msg.sender];\n\n    userToUnFollow.followers = userToUnFollow.followers - 1;\n    currentUser.followings = currentUser.followings - 1;\n\n    users[_addressToUnfollow] = userToUnFollow;\n    users[msg.sender] = currentUser;\n\n    followings[msg.sender][_addressToUnfollow] = false;\n    followers[_addressToUnfollow][msg.sender] = false;\n  }\n}",
  "sourcePath": "/Users/mnavapena/Documents/coding/blockchain/decart/src/contracts/Users.sol",
  "compiler": {
    "name": "solc",
    "version": "0.8.0+commit.c7dfd78e.Emscripten.clang"
  },
  "schemaVersion": "3.2.3",
  "updatedAt": "2022-02-16T01:30:11.300Z",
  "networkType": "ethereum",
  "devdoc": {
    "kind": "dev",
    "methods": {},
    "version": 1
  },
  "userdoc": {
    "kind": "user",
    "methods": {},
    "version": 1
  }
}