{
  "contractName": "Users",
  "abi": [
    {
      "inputs": [
        {
          "internalType": "address",
          "name": "_ownerAccount",
          "type": "address"
        }
      ],
      "stateMutability": "nonpayable",
      "type": "constructor"
    },
    {
      "anonymous": false,
      "inputs": [
        {
          "indexed": false,
          "internalType": "string",
          "name": "name",
          "type": "string"
        },
        {
          "indexed": false,
          "internalType": "string",
          "name": "email",
          "type": "string"
        },
        {
          "indexed": false,
          "internalType": "string",
          "name": "profilePic",
          "type": "string"
        },
        {
          "indexed": false,
          "internalType": "uint256",
          "name": "cost",
          "type": "uint256"
        },
        {
          "indexed": false,
          "internalType": "address",
          "name": "userAddress",
          "type": "address"
        }
      ],
      "name": "CreateUser",
      "type": "event"
    },
    {
      "inputs": [],
      "name": "ownerAccount",
      "outputs": [
        {
          "internalType": "address",
          "name": "",
          "type": "address"
        }
      ],
      "stateMutability": "view",
      "type": "function",
      "constant": true
    },
    {
      "inputs": [
        {
          "internalType": "address",
          "name": "",
          "type": "address"
        }
      ],
      "name": "users",
      "outputs": [
        {
          "internalType": "string",
          "name": "name",
          "type": "string"
        },
        {
          "internalType": "string",
          "name": "email",
          "type": "string"
        },
        {
          "internalType": "string",
          "name": "profilePic",
          "type": "string"
        },
        {
          "internalType": "uint256",
          "name": "cost",
          "type": "uint256"
        },
        {
          "internalType": "address",
          "name": "userAddress",
          "type": "address"
        }
      ],
      "stateMutability": "view",
      "type": "function",
      "constant": true
    },
    {
      "inputs": [
        {
          "internalType": "string",
          "name": "_name",
          "type": "string"
        },
        {
          "internalType": "string",
          "name": "_email",
          "type": "string"
        },
        {
          "internalType": "string",
          "name": "_profilePic",
          "type": "string"
        },
        {
          "internalType": "uint256",
          "name": "_cost",
          "type": "uint256"
        }
      ],
      "name": "createUser",
      "outputs": [],
      "stateMutability": "payable",
      "type": "function",
      "payable": true
    }
  ],
  "bytecode": "0x608060405234801561001057600080fd5b50604051610c83380380610c838339818101604052810190610032919061008d565b806000806101000a81548173ffffffffffffffffffffffffffffffffffffffff021916908373ffffffffffffffffffffffffffffffffffffffff160217905550506100ff565b600081519050610087816100e8565b92915050565b60006020828403121561009f57600080fd5b60006100ad84828501610078565b91505092915050565b60006100c1826100c8565b9050919050565b600073ffffffffffffffffffffffffffffffffffffffff82169050919050565b6100f1816100b6565b81146100fc57600080fd5b50565b610b758061010e6000396000f3fe6080604052600436106100345760003560e01c8063a87430ba14610039578063d26a72281461007a578063ea47cb2414610096575b600080fd5b34801561004557600080fd5b50610060600480360381019061005b91906106a7565b6100c1565b6040516100719594939291906108ad565b60405180910390f35b610094600480360381019061008f91906106d0565b6102af565b005b3480156100a257600080fd5b506100ab61054e565b6040516100b89190610892565b60405180910390f35b60016020528060005260406000206000915090508060000180546100e490610a70565b80601f016020809104026020016040519081016040528092919081815260200182805461011090610a70565b801561015d5780601f106101325761010080835404028352916020019161015d565b820191906000526020600020905b81548152906001019060200180831161014057829003601f168201915b50505050509080600101805461017290610a70565b80601f016020809104026020016040519081016040528092919081815260200182805461019e90610a70565b80156101eb5780601f106101c0576101008083540402835291602001916101eb565b820191906000526020600020905b8154815290600101906020018083116101ce57829003601f168201915b50505050509080600201805461020090610a70565b80601f016020809104026020016040519081016040528092919081815260200182805461022c90610a70565b80156102795780601f1061024e57610100808354040283529160200191610279565b820191906000526020600020905b81548152906001019060200180831161025c57829003601f168201915b5050505050908060030154908060040160009054906101000a900473ffffffffffffffffffffffffffffffffffffffff16905085565b60008451116102f3576040517f08c379a00000000000000000000000000000000000000000000000000000000081526004016102ea90610915565b60405180910390fd5b6000835111610337576040517f08c379a000000000000000000000000000000000000000000000000000000000815260040161032e90610935565b60405180910390fd5b600082511161037b576040517f08c379a000000000000000000000000000000000000000000000000000000000815260040161037290610955565b60405180910390fd5b6040518060a001604052808581526020018481526020018381526020018281526020013373ffffffffffffffffffffffffffffffffffffffff16815250600160003373ffffffffffffffffffffffffffffffffffffffff1673ffffffffffffffffffffffffffffffffffffffff1681526020019081526020016000206000820151816000019080519060200190610413929190610572565b506020820151816001019080519060200190610430929190610572565b50604082015181600201908051906020019061044d929190610572565b506060820151816003015560808201518160040160006101000a81548173ffffffffffffffffffffffffffffffffffffffff021916908373ffffffffffffffffffffffffffffffffffffffff16021790555090505060008054906101000a900473ffffffffffffffffffffffffffffffffffffffff1673ffffffffffffffffffffffffffffffffffffffff166108fc349081150290604051600060405180830381858888f19350505050158015610508573d6000803e3d6000fd5b507f283f9f5cae419d3df3e1aad205cf2df60beebeba0f90173514aa194db8b0721584848484336040516105409594939291906108ad565b60405180910390a150505050565b60008054906101000a900473ffffffffffffffffffffffffffffffffffffffff1681565b82805461057e90610a70565b90600052602060002090601f0160209004810192826105a057600085556105e7565b82601f106105b957805160ff19168380011785556105e7565b828001600101855582156105e7579182015b828111156105e65782518255916020019190600101906105cb565b5b5090506105f491906105f8565b5090565b5b808211156106115760008160009055506001016105f9565b5090565b6000610628610623846109a6565b610975565b90508281526020810184848401111561064057600080fd5b61064b848285610a2e565b509392505050565b60008135905061066281610b11565b92915050565b600082601f83011261067957600080fd5b8135610689848260208601610615565b91505092915050565b6000813590506106a181610b28565b92915050565b6000602082840312156106b957600080fd5b60006106c784828501610653565b91505092915050565b600080600080608085870312156106e657600080fd5b600085013567ffffffffffffffff81111561070057600080fd5b61070c87828801610668565b945050602085013567ffffffffffffffff81111561072957600080fd5b61073587828801610668565b935050604085013567ffffffffffffffff81111561075257600080fd5b61075e87828801610668565b925050606061076f87828801610692565b91505092959194509250565b610784816109f2565b82525050565b6000610795826109d6565b61079f81856109e1565b93506107af818560208601610a3d565b6107b881610b00565b840191505092915050565b60006107d06018836109e1565b91507f456c206e6f6d627265206573206f626c696761746f72696f00000000000000006000830152602082019050919050565b60006108106017836109e1565b91507f456c20656d61696c206573206f626c696761746f72696f0000000000000000006000830152602082019050919050565b60006108506020836109e1565b91507f4c6120666f746f2064652070657266696c206573206f626c696761746f7269616000830152602082019050919050565b61088c81610a24565b82525050565b60006020820190506108a7600083018461077b565b92915050565b600060a08201905081810360008301526108c7818861078a565b905081810360208301526108db818761078a565b905081810360408301526108ef818661078a565b90506108fe6060830185610883565b61090b608083018461077b565b9695505050505050565b6000602082019050818103600083015261092e816107c3565b9050919050565b6000602082019050818103600083015261094e81610803565b9050919050565b6000602082019050818103600083015261096e81610843565b9050919050565b6000604051905081810181811067ffffffffffffffff8211171561099c5761099b610ad1565b5b8060405250919050565b600067ffffffffffffffff8211156109c1576109c0610ad1565b5b601f19601f8301169050602081019050919050565b600081519050919050565b600082825260208201905092915050565b60006109fd82610a04565b9050919050565b600073ffffffffffffffffffffffffffffffffffffffff82169050919050565b6000819050919050565b82818337600083830152505050565b60005b83811015610a5b578082015181840152602081019050610a40565b83811115610a6a576000848401525b50505050565b60006002820490506001821680610a8857607f821691505b60208210811415610a9c57610a9b610aa2565b5b50919050565b7f4e487b7100000000000000000000000000000000000000000000000000000000600052602260045260246000fd5b7f4e487b7100000000000000000000000000000000000000000000000000000000600052604160045260246000fd5b6000601f19601f8301169050919050565b610b1a816109f2565b8114610b2557600080fd5b50565b610b3181610a24565b8114610b3c57600080fd5b5056fea2646970667358221220718001990b59184eff6183ab6ad0ceacc8eb838407e18494e1bc032c5ea7938664736f6c63430008000033",
  "immutableReferences": {},
  "source": "// SPDX-License-Identifier: MIT\npragma solidity ^0.8.0;\n\ncontract Users {  \n  address public ownerAccount;\n  mapping(address => _User) public users;\n  \n  /*---OBJECTS---*/  \n  struct _User {\n    string name;\n    string email;\n    string profilePic;\n    uint cost;\n    address userAddress;    \n  }\n\n  /*---EVENTS---*/\n  event CreateUser(\n    string name,\n    string email,\n    string profilePic,\n    uint cost,\n    address userAddress\n  );\n  \n  constructor(address _ownerAccount) {\n    ownerAccount = _ownerAccount;\n  }\n\n  function createUser(string memory _name, string memory _email, string memory _profilePic, uint _cost) public payable {\n    //Validate mandatory fields\n    require(bytes(_name).length > 0, 'El nombre es obligatorio');\n    require(bytes(_email).length > 0, 'El email es obligatorio');\n    require(bytes(_profilePic).length > 0, 'La foto de perfil es obligatoria');\n\n    //Add user and pay the owner\n    users[msg.sender] = _User(_name, _email, _profilePic, _cost, msg.sender);\n    payable(ownerAccount).transfer(msg.value);\n\n    emit CreateUser(_name, _email, _profilePic, _cost, msg.sender);\n  }\n}",
  "sourcePath": "/Users/mnavapena/Documents/coding/blockchain/decart/src/contracts/Users.sol",
  "compiler": {
    "name": "solc",
    "version": "0.8.0+commit.c7dfd78e.Emscripten.clang"
  },
  "schemaVersion": "3.2.3",
  "updatedAt": "2022-02-06T00:17:46.981Z",
  "networkType": "ethereum",
  "devdoc": {
    "kind": "dev",
    "methods": {},
    "version": 1
  },
  "userdoc": {
    "kind": "user",
    "methods": {},
    "version": 1
  }
}