{
  "contractName": "Users",
  "abi": [
    {
      "inputs": [
        {
          "internalType": "address",
          "name": "_ownerAccount",
          "type": "address"
        }
      ],
      "stateMutability": "nonpayable",
      "type": "constructor"
    },
    {
      "anonymous": false,
      "inputs": [
        {
          "indexed": false,
          "internalType": "string",
          "name": "name",
          "type": "string"
        },
        {
          "indexed": false,
          "internalType": "string",
          "name": "email",
          "type": "string"
        },
        {
          "indexed": false,
          "internalType": "string",
          "name": "profilePic",
          "type": "string"
        },
        {
          "indexed": false,
          "internalType": "uint256",
          "name": "cost",
          "type": "uint256"
        },
        {
          "indexed": false,
          "internalType": "address",
          "name": "userAddress",
          "type": "address"
        }
      ],
      "name": "CreateUser",
      "type": "event"
    },
    {
      "anonymous": false,
      "inputs": [
        {
          "indexed": false,
          "internalType": "address",
          "name": "currentUser",
          "type": "address"
        },
        {
          "indexed": false,
          "internalType": "address",
          "name": "followedUser",
          "type": "address"
        }
      ],
      "name": "FollowUser",
      "type": "event"
    },
    {
      "anonymous": false,
      "inputs": [
        {
          "indexed": false,
          "internalType": "string",
          "name": "name",
          "type": "string"
        },
        {
          "indexed": false,
          "internalType": "string",
          "name": "profilePic",
          "type": "string"
        },
        {
          "indexed": false,
          "internalType": "uint256",
          "name": "cost",
          "type": "uint256"
        },
        {
          "indexed": false,
          "internalType": "address",
          "name": "userAddress",
          "type": "address"
        }
      ],
      "name": "UpdateUser",
      "type": "event"
    },
    {
      "inputs": [
        {
          "internalType": "address",
          "name": "",
          "type": "address"
        },
        {
          "internalType": "address",
          "name": "",
          "type": "address"
        }
      ],
      "name": "followers",
      "outputs": [
        {
          "internalType": "bool",
          "name": "",
          "type": "bool"
        }
      ],
      "stateMutability": "view",
      "type": "function",
      "constant": true
    },
    {
      "inputs": [
        {
          "internalType": "address",
          "name": "",
          "type": "address"
        },
        {
          "internalType": "address",
          "name": "",
          "type": "address"
        }
      ],
      "name": "followings",
      "outputs": [
        {
          "internalType": "bool",
          "name": "",
          "type": "bool"
        }
      ],
      "stateMutability": "view",
      "type": "function",
      "constant": true
    },
    {
      "inputs": [],
      "name": "ownerAccount",
      "outputs": [
        {
          "internalType": "address",
          "name": "",
          "type": "address"
        }
      ],
      "stateMutability": "view",
      "type": "function",
      "constant": true
    },
    {
      "inputs": [
        {
          "internalType": "address",
          "name": "",
          "type": "address"
        }
      ],
      "name": "users",
      "outputs": [
        {
          "internalType": "string",
          "name": "name",
          "type": "string"
        },
        {
          "internalType": "string",
          "name": "email",
          "type": "string"
        },
        {
          "internalType": "string",
          "name": "profilePic",
          "type": "string"
        },
        {
          "internalType": "uint256",
          "name": "cost",
          "type": "uint256"
        },
        {
          "internalType": "address",
          "name": "userAddress",
          "type": "address"
        },
        {
          "internalType": "uint256",
          "name": "followings",
          "type": "uint256"
        },
        {
          "internalType": "uint256",
          "name": "followers",
          "type": "uint256"
        },
        {
          "internalType": "uint256",
          "name": "posts",
          "type": "uint256"
        },
        {
          "internalType": "bool",
          "name": "valid",
          "type": "bool"
        }
      ],
      "stateMutability": "view",
      "type": "function",
      "constant": true
    },
    {
      "inputs": [
        {
          "internalType": "string",
          "name": "_name",
          "type": "string"
        },
        {
          "internalType": "string",
          "name": "_email",
          "type": "string"
        },
        {
          "internalType": "string",
          "name": "_profilePic",
          "type": "string"
        },
        {
          "internalType": "uint256",
          "name": "_cost",
          "type": "uint256"
        }
      ],
      "name": "createUser",
      "outputs": [],
      "stateMutability": "payable",
      "type": "function",
      "payable": true
    },
    {
      "inputs": [
        {
          "internalType": "string",
          "name": "_name",
          "type": "string"
        },
        {
          "internalType": "string",
          "name": "_profilePic",
          "type": "string"
        },
        {
          "internalType": "uint256",
          "name": "_cost",
          "type": "uint256"
        }
      ],
      "name": "updateUser",
      "outputs": [],
      "stateMutability": "payable",
      "type": "function",
      "payable": true
    },
    {
      "inputs": [
        {
          "internalType": "address",
          "name": "_addressToFollow",
          "type": "address"
        }
      ],
      "name": "followUser",
      "outputs": [],
      "stateMutability": "payable",
      "type": "function",
      "payable": true
    },
    {
      "inputs": [
        {
          "internalType": "address",
          "name": "_addressToUnfollow",
          "type": "address"
        }
      ],
      "name": "unfollowUser",
      "outputs": [],
      "stateMutability": "nonpayable",
      "type": "function"
    }
  ],
  "bytecode": "0x60806040523480156200001157600080fd5b5060405162002d9738038062002d97833981810160405281019062000037919062000095565b806000806101000a81548173ffffffffffffffffffffffffffffffffffffffff021916908373ffffffffffffffffffffffffffffffffffffffff160217905550506200010f565b6000815190506200008f81620000f5565b92915050565b600060208284031215620000a857600080fd5b6000620000b8848285016200007e565b91505092915050565b6000620000ce82620000d5565b9050919050565b600073ffffffffffffffffffffffffffffffffffffffff82169050919050565b6200010081620000c1565b81146200010c57600080fd5b50565b612c78806200011f6000396000f3fe60806040526004361061007b5760003560e01c8063ad88881b1161004e578063ad88881b1461013a578063d26a722814610177578063ea47cb2414610193578063f107cfcb146101be5761007b565b8063153500aa146100805780635dbcdff91461009c578063a70806f7146100d9578063a87430ba146100f5575b600080fd5b61009a600480360381019061009591906124d2565b6101e7565b005b3480156100a857600080fd5b506100c360048036038101906100be91906123eb565b610725565b6040516100d0919061277b565b60405180910390f35b6100f360048036038101906100ee91906123c2565b610754565b005b34801561010157600080fd5b5061011c600480360381019061011791906123c2565b6112a9565b604051610131999897969594939291906127fe565b60405180910390f35b34801561014657600080fd5b50610161600480360381019061015c91906123eb565b6114bc565b60405161016e919061277b565b60405180910390f35b610191600480360381019061018c9190612427565b6114eb565b005b34801561019f57600080fd5b506101a86117e8565b6040516101b59190612737565b60405180910390f35b3480156101ca57600080fd5b506101e560048036038101906101e091906123c2565b61180c565b005b600083511161022b576040517f08c379a0000000000000000000000000000000000000000000000000000000008152600401610222906128f3565b60405180910390fd5b600082511161026f576040517f08c379a000000000000000000000000000000000000000000000000000000000815260040161026690612993565b60405180910390fd5b600160003373ffffffffffffffffffffffffffffffffffffffff1673ffffffffffffffffffffffffffffffffffffffff16815260200190815260200160002060080160009054906101000a900460ff166102fe576040517f08c379a00000000000000000000000000000000000000000000000000000000081526004016102f590612973565b60405180910390fd5b6000600160003373ffffffffffffffffffffffffffffffffffffffff1673ffffffffffffffffffffffffffffffffffffffff1681526020019081526020016000206040518061012001604052908160008201805461035b90612b44565b80601f016020809104026020016040519081016040528092919081815260200182805461038790612b44565b80156103d45780601f106103a9576101008083540402835291602001916103d4565b820191906000526020600020905b8154815290600101906020018083116103b757829003601f168201915b505050505081526020016001820180546103ed90612b44565b80601f016020809104026020016040519081016040528092919081815260200182805461041990612b44565b80156104665780601f1061043b57610100808354040283529160200191610466565b820191906000526020600020905b81548152906001019060200180831161044957829003601f168201915b5050505050815260200160028201805461047f90612b44565b80601f01602080910402602001604051908101604052809291908181526020018280546104ab90612b44565b80156104f85780601f106104cd576101008083540402835291602001916104f8565b820191906000526020600020905b8154815290600101906020018083116104db57829003601f168201915b50505050508152602001600382015481526020016004820160009054906101000a900473ffffffffffffffffffffffffffffffffffffffff1673ffffffffffffffffffffffffffffffffffffffff1673ffffffffffffffffffffffffffffffffffffffff1681526020016005820154815260200160068201548152602001600782015481526020016008820160009054906101000a900460ff16151515158152505090508381600001819052508281604001819052508181606001818152505080600160003373ffffffffffffffffffffffffffffffffffffffff1673ffffffffffffffffffffffffffffffffffffffff168152602001908152602001600020600082015181600001908051906020019061061492919061228d565b50602082015181600101908051906020019061063192919061228d565b50604082015181600201908051906020019061064e92919061228d565b506060820151816003015560808201518160040160006101000a81548173ffffffffffffffffffffffffffffffffffffffff021916908373ffffffffffffffffffffffffffffffffffffffff16021790555060a0820151816005015560c0820151816006015560e082015181600701556101008201518160080160006101000a81548160ff0219169083151502179055509050507f90d4a3ae38f3cdeab2ec7a642da2b351190d36a1df57a8abfb4f592e024783f68484843360405161071794939291906128a0565b60405180910390a150505050565b60026020528160005260406000206020528060005260406000206000915091509054906101000a900460ff1681565b600073ffffffffffffffffffffffffffffffffffffffff168173ffffffffffffffffffffffffffffffffffffffff1614156107c4576040517f08c379a00000000000000000000000000000000000000000000000000000000081526004016107bb90612933565b60405180910390fd5b600160008273ffffffffffffffffffffffffffffffffffffffff1673ffffffffffffffffffffffffffffffffffffffff16815260200190815260200160002060080160009054906101000a900460ff16610853576040517f08c379a000000000000000000000000000000000000000000000000000000000815260040161084a90612973565b60405180910390fd5b600160003373ffffffffffffffffffffffffffffffffffffffff1673ffffffffffffffffffffffffffffffffffffffff16815260200190815260200160002060080160009054906101000a900460ff166108e2576040517f08c379a00000000000000000000000000000000000000000000000000000000081526004016108d990612973565b60405180910390fd5b6000600160008373ffffffffffffffffffffffffffffffffffffffff1673ffffffffffffffffffffffffffffffffffffffff1681526020019081526020016000206040518061012001604052908160008201805461093f90612b44565b80601f016020809104026020016040519081016040528092919081815260200182805461096b90612b44565b80156109b85780601f1061098d576101008083540402835291602001916109b8565b820191906000526020600020905b81548152906001019060200180831161099b57829003601f168201915b505050505081526020016001820180546109d190612b44565b80601f01602080910402602001604051908101604052809291908181526020018280546109fd90612b44565b8015610a4a5780601f10610a1f57610100808354040283529160200191610a4a565b820191906000526020600020905b815481529060010190602001808311610a2d57829003601f168201915b50505050508152602001600282018054610a6390612b44565b80601f0160208091040260200160405190810160405280929190818152602001828054610a8f90612b44565b8015610adc5780601f10610ab157610100808354040283529160200191610adc565b820191906000526020600020905b815481529060010190602001808311610abf57829003601f168201915b50505050508152602001600382015481526020016004820160009054906101000a900473ffffffffffffffffffffffffffffffffffffffff1673ffffffffffffffffffffffffffffffffffffffff1673ffffffffffffffffffffffffffffffffffffffff1681526020016005820154815260200160068201548152602001600782015481526020016008820160009054906101000a900460ff16151515158152505090506000600160003373ffffffffffffffffffffffffffffffffffffffff1673ffffffffffffffffffffffffffffffffffffffff16815260200190815260200160002060405180610120016040529081600082018054610bdd90612b44565b80601f0160208091040260200160405190810160405280929190818152602001828054610c0990612b44565b8015610c565780601f10610c2b57610100808354040283529160200191610c56565b820191906000526020600020905b815481529060010190602001808311610c3957829003601f168201915b50505050508152602001600182018054610c6f90612b44565b80601f0160208091040260200160405190810160405280929190818152602001828054610c9b90612b44565b8015610ce85780601f10610cbd57610100808354040283529160200191610ce8565b820191906000526020600020905b815481529060010190602001808311610ccb57829003601f168201915b50505050508152602001600282018054610d0190612b44565b80601f0160208091040260200160405190810160405280929190818152602001828054610d2d90612b44565b8015610d7a5780601f10610d4f57610100808354040283529160200191610d7a565b820191906000526020600020905b815481529060010190602001808311610d5d57829003601f168201915b50505050508152602001600382015481526020016004820160009054906101000a900473ffffffffffffffffffffffffffffffffffffffff1673ffffffffffffffffffffffffffffffffffffffff1673ffffffffffffffffffffffffffffffffffffffff1681526020016005820154815260200160068201548152602001600782015481526020016008820160009054906101000a900460ff1615151515815250509050600082606001511115610eb95734826060015114610e71576040517f08c379a0000000000000000000000000000000000000000000000000000000008152600401610e6890612953565b60405180910390fd5b8273ffffffffffffffffffffffffffffffffffffffff166108fc349081150290604051600060405180830381858888f19350505050158015610eb7573d6000803e3d6000fd5b505b60018260c00151610eca9190612a30565b8260c001818152505060018160a00151610ee49190612a30565b8160a001818152505081600160008573ffffffffffffffffffffffffffffffffffffffff1673ffffffffffffffffffffffffffffffffffffffff1681526020019081526020016000206000820151816000019080519060200190610f4992919061228d565b506020820151816001019080519060200190610f6692919061228d565b506040820151816002019080519060200190610f8392919061228d565b506060820151816003015560808201518160040160006101000a81548173ffffffffffffffffffffffffffffffffffffffff021916908373ffffffffffffffffffffffffffffffffffffffff16021790555060a0820151816005015560c0820151816006015560e082015181600701556101008201518160080160006101000a81548160ff02191690831515021790555090505080600160003373ffffffffffffffffffffffffffffffffffffffff1673ffffffffffffffffffffffffffffffffffffffff168152602001908152602001600020600082015181600001908051906020019061107392919061228d565b50602082015181600101908051906020019061109092919061228d565b5060408201518160020190805190602001906110ad92919061228d565b506060820151816003015560808201518160040160006101000a81548173ffffffffffffffffffffffffffffffffffffffff021916908373ffffffffffffffffffffffffffffffffffffffff16021790555060a0820151816005015560c0820151816006015560e082015181600701556101008201518160080160006101000a81548160ff0219169083151502179055509050506001600260003373ffffffffffffffffffffffffffffffffffffffff1673ffffffffffffffffffffffffffffffffffffffff16815260200190815260200160002060008573ffffffffffffffffffffffffffffffffffffffff1673ffffffffffffffffffffffffffffffffffffffff16815260200190815260200160002060006101000a81548160ff0219169083151502179055506001600360008573ffffffffffffffffffffffffffffffffffffffff1673ffffffffffffffffffffffffffffffffffffffff16815260200190815260200160002060003373ffffffffffffffffffffffffffffffffffffffff1673ffffffffffffffffffffffffffffffffffffffff16815260200190815260200160002060006101000a81548160ff0219169083151502179055507f18f48e0ecf04191f0c297b700bc1bccdbd3fe8e2454077ff31f387110dc19388338460405161129c929190612752565b60405180910390a1505050565b60016020528060005260406000206000915090508060000180546112cc90612b44565b80601f01602080910402602001604051908101604052809291908181526020018280546112f890612b44565b80156113455780601f1061131a57610100808354040283529160200191611345565b820191906000526020600020905b81548152906001019060200180831161132857829003601f168201915b50505050509080600101805461135a90612b44565b80601f016020809104026020016040519081016040528092919081815260200182805461138690612b44565b80156113d35780601f106113a8576101008083540402835291602001916113d3565b820191906000526020600020905b8154815290600101906020018083116113b657829003601f168201915b5050505050908060020180546113e890612b44565b80601f016020809104026020016040519081016040528092919081815260200182805461141490612b44565b80156114615780601f1061143657610100808354040283529160200191611461565b820191906000526020600020905b81548152906001019060200180831161144457829003601f168201915b5050505050908060030154908060040160009054906101000a900473ffffffffffffffffffffffffffffffffffffffff16908060050154908060060154908060070154908060080160009054906101000a900460ff16905089565b60036020528160005260406000206020528060005260406000206000915091509054906101000a900460ff1681565b600084511161152f576040517f08c379a0000000000000000000000000000000000000000000000000000000008152600401611526906128f3565b60405180910390fd5b6000835111611573576040517f08c379a000000000000000000000000000000000000000000000000000000000815260040161156a90612913565b60405180910390fd5b60008251116115b7576040517f08c379a00000000000000000000000000000000000000000000000000000000081526004016115ae90612993565b60405180910390fd5b6040518061012001604052808581526020018481526020018381526020018281526020013373ffffffffffffffffffffffffffffffffffffffff16815260200160008152602001600081526020016000815260200160011515815250600160003373ffffffffffffffffffffffffffffffffffffffff1673ffffffffffffffffffffffffffffffffffffffff168152602001908152602001600020600082015181600001908051906020019061166e92919061228d565b50602082015181600101908051906020019061168b92919061228d565b5060408201518160020190805190602001906116a892919061228d565b506060820151816003015560808201518160040160006101000a81548173ffffffffffffffffffffffffffffffffffffffff021916908373ffffffffffffffffffffffffffffffffffffffff16021790555060a0820151816005015560c0820151816006015560e082015181600701556101008201518160080160006101000a81548160ff02191690831515021790555090505060008054906101000a900473ffffffffffffffffffffffffffffffffffffffff1673ffffffffffffffffffffffffffffffffffffffff166108fc349081150290604051600060405180830381858888f193505050501580156117a2573d6000803e3d6000fd5b507f283f9f5cae419d3df3e1aad205cf2df60beebeba0f90173514aa194db8b0721584848484336040516117da959493929190612796565b60405180910390a150505050565b60008054906101000a900473ffffffffffffffffffffffffffffffffffffffff1681565b600073ffffffffffffffffffffffffffffffffffffffff168173ffffffffffffffffffffffffffffffffffffffff16141561187c576040517f08c379a000000000000000000000000000000000000000000000000000000000815260040161187390612933565b60405180910390fd5b600160008273ffffffffffffffffffffffffffffffffffffffff1673ffffffffffffffffffffffffffffffffffffffff16815260200190815260200160002060080160009054906101000a900460ff1661190b576040517f08c379a000000000000000000000000000000000000000000000000000000000815260040161190290612973565b60405180910390fd5b600160003373ffffffffffffffffffffffffffffffffffffffff1673ffffffffffffffffffffffffffffffffffffffff16815260200190815260200160002060080160009054906101000a900460ff1661199a576040517f08c379a000000000000000000000000000000000000000000000000000000000815260040161199190612973565b60405180910390fd5b6000600160008373ffffffffffffffffffffffffffffffffffffffff1673ffffffffffffffffffffffffffffffffffffffff168152602001908152602001600020604051806101200160405290816000820180546119f790612b44565b80601f0160208091040260200160405190810160405280929190818152602001828054611a2390612b44565b8015611a705780601f10611a4557610100808354040283529160200191611a70565b820191906000526020600020905b815481529060010190602001808311611a5357829003601f168201915b50505050508152602001600182018054611a8990612b44565b80601f0160208091040260200160405190810160405280929190818152602001828054611ab590612b44565b8015611b025780601f10611ad757610100808354040283529160200191611b02565b820191906000526020600020905b815481529060010190602001808311611ae557829003601f168201915b50505050508152602001600282018054611b1b90612b44565b80601f0160208091040260200160405190810160405280929190818152602001828054611b4790612b44565b8015611b945780601f10611b6957610100808354040283529160200191611b94565b820191906000526020600020905b815481529060010190602001808311611b7757829003601f168201915b50505050508152602001600382015481526020016004820160009054906101000a900473ffffffffffffffffffffffffffffffffffffffff1673ffffffffffffffffffffffffffffffffffffffff1673ffffffffffffffffffffffffffffffffffffffff1681526020016005820154815260200160068201548152602001600782015481526020016008820160009054906101000a900460ff16151515158152505090506000600160003373ffffffffffffffffffffffffffffffffffffffff1673ffffffffffffffffffffffffffffffffffffffff16815260200190815260200160002060405180610120016040529081600082018054611c9590612b44565b80601f0160208091040260200160405190810160405280929190818152602001828054611cc190612b44565b8015611d0e5780601f10611ce357610100808354040283529160200191611d0e565b820191906000526020600020905b815481529060010190602001808311611cf157829003601f168201915b50505050508152602001600182018054611d2790612b44565b80601f0160208091040260200160405190810160405280929190818152602001828054611d5390612b44565b8015611da05780601f10611d7557610100808354040283529160200191611da0565b820191906000526020600020905b815481529060010190602001808311611d8357829003601f168201915b50505050508152602001600282018054611db990612b44565b80601f0160208091040260200160405190810160405280929190818152602001828054611de590612b44565b8015611e325780601f10611e0757610100808354040283529160200191611e32565b820191906000526020600020905b815481529060010190602001808311611e1557829003601f168201915b50505050508152602001600382015481526020016004820160009054906101000a900473ffffffffffffffffffffffffffffffffffffffff1673ffffffffffffffffffffffffffffffffffffffff1673ffffffffffffffffffffffffffffffffffffffff1681526020016005820154815260200160068201548152602001600782015481526020016008820160009054906101000a900460ff161515151581525050905060018260c00151611ee79190612a86565b8260c001818152505060018160a00151611f019190612a86565b8160a001818152505081600160008573ffffffffffffffffffffffffffffffffffffffff1673ffffffffffffffffffffffffffffffffffffffff1681526020019081526020016000206000820151816000019080519060200190611f6692919061228d565b506020820151816001019080519060200190611f8392919061228d565b506040820151816002019080519060200190611fa092919061228d565b506060820151816003015560808201518160040160006101000a81548173ffffffffffffffffffffffffffffffffffffffff021916908373ffffffffffffffffffffffffffffffffffffffff16021790555060a0820151816005015560c0820151816006015560e082015181600701556101008201518160080160006101000a81548160ff02191690831515021790555090505080600160003373ffffffffffffffffffffffffffffffffffffffff1673ffffffffffffffffffffffffffffffffffffffff168152602001908152602001600020600082015181600001908051906020019061209092919061228d565b5060208201518160010190805190602001906120ad92919061228d565b5060408201518160020190805190602001906120ca92919061228d565b506060820151816003015560808201518160040160006101000a81548173ffffffffffffffffffffffffffffffffffffffff021916908373ffffffffffffffffffffffffffffffffffffffff16021790555060a0820151816005015560c0820151816006015560e082015181600701556101008201518160080160006101000a81548160ff0219169083151502179055509050506000600260003373ffffffffffffffffffffffffffffffffffffffff1673ffffffffffffffffffffffffffffffffffffffff16815260200190815260200160002060008573ffffffffffffffffffffffffffffffffffffffff1673ffffffffffffffffffffffffffffffffffffffff16815260200190815260200160002060006101000a81548160ff0219169083151502179055506000600360008573ffffffffffffffffffffffffffffffffffffffff1673ffffffffffffffffffffffffffffffffffffffff16815260200190815260200160002060003373ffffffffffffffffffffffffffffffffffffffff1673ffffffffffffffffffffffffffffffffffffffff16815260200190815260200160002060006101000a81548160ff021916908315150217905550505050565b82805461229990612b44565b90600052602060002090601f0160209004810192826122bb5760008555612302565b82601f106122d457805160ff1916838001178555612302565b82800160010185558215612302579182015b828111156123015782518255916020019190600101906122e6565b5b50905061230f9190612313565b5090565b5b8082111561232c576000816000905550600101612314565b5090565b600061234361233e846129e4565b6129b3565b90508281526020810184848401111561235b57600080fd5b612366848285612b02565b509392505050565b60008135905061237d81612c14565b92915050565b600082601f83011261239457600080fd5b81356123a4848260208601612330565b91505092915050565b6000813590506123bc81612c2b565b92915050565b6000602082840312156123d457600080fd5b60006123e28482850161236e565b91505092915050565b600080604083850312156123fe57600080fd5b600061240c8582860161236e565b925050602061241d8582860161236e565b9150509250929050565b6000806000806080858703121561243d57600080fd5b600085013567ffffffffffffffff81111561245757600080fd5b61246387828801612383565b945050602085013567ffffffffffffffff81111561248057600080fd5b61248c87828801612383565b935050604085013567ffffffffffffffff8111156124a957600080fd5b6124b587828801612383565b92505060606124c6878288016123ad565b91505092959194509250565b6000806000606084860312156124e757600080fd5b600084013567ffffffffffffffff81111561250157600080fd5b61250d86828701612383565b935050602084013567ffffffffffffffff81111561252a57600080fd5b61253686828701612383565b9250506040612547868287016123ad565b9150509250925092565b61255a81612aba565b82525050565b61256981612acc565b82525050565b600061257a82612a14565b6125848185612a1f565b9350612594818560208601612b11565b61259d81612c03565b840191505092915050565b60006125b5601883612a1f565b91507f456c206e6f6d627265206573206f626c696761746f72696f00000000000000006000830152602082019050919050565b60006125f5601783612a1f565b91507f456c20656d61696c206573206f626c696761746f72696f0000000000000000006000830152602082019050919050565b6000612635600c83612a1f565b91507f496e76616c6964207573657200000000000000000000000000000000000000006000830152602082019050919050565b6000612675601083612a1f565b91507f4d6f6e746f20696e636f72726563746f000000000000000000000000000000006000830152602082019050919050565b60006126b5601183612a1f565b91507f5573756172696f206e6f206578697374650000000000000000000000000000006000830152602082019050919050565b60006126f5602083612a1f565b91507f4c6120666f746f2064652070657266696c206573206f626c696761746f7269616000830152602082019050919050565b61273181612af8565b82525050565b600060208201905061274c6000830184612551565b92915050565b60006040820190506127676000830185612551565b6127746020830184612551565b9392505050565b60006020820190506127906000830184612560565b92915050565b600060a08201905081810360008301526127b0818861256f565b905081810360208301526127c4818761256f565b905081810360408301526127d8818661256f565b90506127e76060830185612728565b6127f46080830184612551565b9695505050505050565b6000610120820190508181036000830152612819818c61256f565b9050818103602083015261282d818b61256f565b90508181036040830152612841818a61256f565b90506128506060830189612728565b61285d6080830188612551565b61286a60a0830187612728565b61287760c0830186612728565b61288460e0830185612728565b612892610100830184612560565b9a9950505050505050505050565b600060808201905081810360008301526128ba818761256f565b905081810360208301526128ce818661256f565b90506128dd6040830185612728565b6128ea6060830184612551565b95945050505050565b6000602082019050818103600083015261290c816125a8565b9050919050565b6000602082019050818103600083015261292c816125e8565b9050919050565b6000602082019050818103600083015261294c81612628565b9050919050565b6000602082019050818103600083015261296c81612668565b9050919050565b6000602082019050818103600083015261298c816126a8565b9050919050565b600060208201905081810360008301526129ac816126e8565b9050919050565b6000604051905081810181811067ffffffffffffffff821117156129da576129d9612bd4565b5b8060405250919050565b600067ffffffffffffffff8211156129ff576129fe612bd4565b5b601f19601f8301169050602081019050919050565b600081519050919050565b600082825260208201905092915050565b6000612a3b82612af8565b9150612a4683612af8565b9250827fffffffffffffffffffffffffffffffffffffffffffffffffffffffffffffffff03821115612a7b57612a7a612b76565b5b828201905092915050565b6000612a9182612af8565b9150612a9c83612af8565b925082821015612aaf57612aae612b76565b5b828203905092915050565b6000612ac582612ad8565b9050919050565b60008115159050919050565b600073ffffffffffffffffffffffffffffffffffffffff82169050919050565b6000819050919050565b82818337600083830152505050565b60005b83811015612b2f578082015181840152602081019050612b14565b83811115612b3e576000848401525b50505050565b60006002820490506001821680612b5c57607f821691505b60208210811415612b7057612b6f612ba5565b5b50919050565b7f4e487b7100000000000000000000000000000000000000000000000000000000600052601160045260246000fd5b7f4e487b7100000000000000000000000000000000000000000000000000000000600052602260045260246000fd5b7f4e487b7100000000000000000000000000000000000000000000000000000000600052604160045260246000fd5b6000601f19601f8301169050919050565b612c1d81612aba565b8114612c2857600080fd5b50565b612c3481612af8565b8114612c3f57600080fd5b5056fea2646970667358221220dc2d0cd93a740459cdc5c36f96c3e51e8e6e29982b75538848291a34f0662b8064736f6c63430008000033",
  "immutableReferences": {},
  "source": "// SPDX-License-Identifier: MIT\npragma solidity ^0.8.0;\n\ncontract Users {  \n  address public ownerAccount;\n  mapping(address => _User) public users;\n  mapping(address => mapping(address => bool)) public followings;\n  mapping(address => mapping(address => bool)) public followers;\n  \n  /*---OBJECTS---*/  \n  struct _User {\n    string name;\n    string email;\n    string profilePic;\n    uint cost;\n    address userAddress;\n    uint followings;\n    uint followers;\n    uint posts;\n    bool valid;\n  }\n\n  /*---EVENTS---*/\n  event CreateUser(\n    string name,\n    string email,\n    string profilePic,\n    uint cost,\n    address userAddress    \n  );\n\n  event FollowUser(\n    address currentUser,\n    address followedUser\n  );\n\n  event UpdateUser(\n    string name,\n    string profilePic,\n    uint cost,\n    address userAddress\n  );\n  \n  constructor(address _ownerAccount) {\n    ownerAccount = _ownerAccount;\n  }\n\n  function createUser(string memory _name, string memory _email, string memory _profilePic, uint _cost) public payable {\n    //Validate mandatory fields\n    require(bytes(_name).length > 0, 'El nombre es obligatorio');\n    require(bytes(_email).length > 0, 'El email es obligatorio');\n    require(bytes(_profilePic).length > 0, 'La foto de perfil es obligatoria');\n\n    //Add user and pay the owner\n    users[msg.sender] = _User(_name, _email, _profilePic, _cost, msg.sender, 0, 0, 0, true);\n    payable(ownerAccount).transfer(msg.value);\n\n    emit CreateUser(_name, _email, _profilePic, _cost, msg.sender);\n  }\n\n  function updateUser(string memory _name, string memory _profilePic, uint _cost) public payable {\n    //Validate mandatory fields\n    require(bytes(_name).length > 0, 'El nombre es obligatorio');\n    require(bytes(_profilePic).length > 0, 'La foto de perfil es obligatoria');\n    require(users[msg.sender].valid, 'Usuario no existe');\n\n    _User memory currentUser = users[msg.sender];\n    currentUser.name = _name;\n    currentUser.profilePic = _profilePic;\n    currentUser.cost = _cost;\n\n    users[msg.sender] = currentUser;\n    \n    emit UpdateUser(_name, _profilePic, _cost, msg.sender);\n  }\n\n  function followUser(address _addressToFollow) public payable {\n    require(_addressToFollow != address(0), 'Invalid user');\n    require(users[_addressToFollow].valid, 'Usuario no existe');\n    require(users[msg.sender].valid, 'Usuario no existe');\n\n    _User memory userToFollow = users[_addressToFollow];\n    _User memory currentUser = users[msg.sender];\n\n    if(userToFollow.cost > 0) {\n      require(userToFollow.cost == msg.value, 'Monto incorrecto');\n      payable(_addressToFollow).transfer(msg.value);\n    }    \n\n    userToFollow.followers = userToFollow.followers + 1;\n    currentUser.followings = currentUser.followings + 1;\n\n    users[_addressToFollow] = userToFollow;\n    users[msg.sender] = currentUser;\n\n    followings[msg.sender][_addressToFollow] = true;\n    followers[_addressToFollow][msg.sender] = true;\n\n    emit FollowUser(msg.sender, _addressToFollow);    \n  }\n\n  function unfollowUser(address _addressToUnfollow) public {\n    require(_addressToUnfollow != address(0), 'Invalid user');\n    require(users[_addressToUnfollow].valid, 'Usuario no existe');\n    require(users[msg.sender].valid, 'Usuario no existe');\n\n    _User memory userToUnFollow = users[_addressToUnfollow];\n    _User memory currentUser = users[msg.sender];\n\n    userToUnFollow.followers = userToUnFollow.followers - 1;\n    currentUser.followings = currentUser.followings - 1;\n\n    users[_addressToUnfollow] = userToUnFollow;\n    users[msg.sender] = currentUser;\n\n    followings[msg.sender][_addressToUnfollow] = false;\n    followers[_addressToUnfollow][msg.sender] = false;\n  }\n}",
  "sourcePath": "/Users/mnavapena/Documents/coding/blockchain/decart/src/contracts/Users.sol",
  "compiler": {
    "name": "solc",
    "version": "0.8.0+commit.c7dfd78e.Emscripten.clang"
  },
  "schemaVersion": "3.2.3",
  "updatedAt": "2022-02-26T02:08:47.480Z",
  "networkType": "ethereum",
  "devdoc": {
    "kind": "dev",
    "methods": {},
    "version": 1
  },
  "userdoc": {
    "kind": "user",
    "methods": {},
    "version": 1
  }
}